S0180000454E454D595F4445544543545F4558322E7372656348
S11300005CC000006BC0000069C0000067C0000055
S113001065C0000063C0000061C000005FC0000054
S11300205DC000005BC0000059C0000057C0000064
S113003055C0000053C0000051C000004FC0000074
S11300404DC000004BC0000071C0000047C000005C
S113005045C0000043C0000041C000003FC0000094
S11300603DC000003BC0000039C0000037C00000A4
S113007035C0000033C0000032C000002FC00000B3
S11300802DC000002BC0000029C00000084AD73B47
S11300903BCE016E84BCBFFDC12F3D6C74319ABD53
S11300A056833DDA3D00C77F11BED9E4BB4C3E9177
S11300B06BAAAABE000000803F0011241FBECFEF30
S11300C0D0E1DEBFCDBF24E0A0E0B1E001C01D92CD
S11300D0A633B207E1F7BDD40C94C60891CF1F92A2
S11300E00F920FB60F9211240BB60F922F933F93DA
S11300F04F935F936F937F938F939F93AF93BF932C
S1130100EF93FF9310D5FF91EF91BF91AF919F9122
S11301108F917F916F915F914F913F912F910F90AC
S11301200BBE0F900FBE0F901F9018951F920F9249
S11301300FB60F9211240BB60F922F933F934F9348
S11301405F936F937F938F939F93AF93BF93EF933B
S1130150FF93AED4FF91EF91BF91AF919F918F9197
S11301607F916F915F914F913F912F910F900BBEB3
S11301700F900FBE0F901F9018958FB582608FBDA2
S11301808EB588618EBD8FB5806A8FBD8EB5826055
S11301908EBD2FE33CE937BD26BDABE8B0E08C91C2
S11301A082608C93EAE8F0E08081886180838C919E
S11301B0806A8C9380818260808330938100209355
S11301C0800080E687BB88E182B908956F927F92B0
S11301D08F929F92AF92BF92CF92DF92EF92FF9253
S11301E00F931F93CF93DF93CDB7DEB728970FB646
S11301F0F894DEBF0FBECDBF19821A821B821C8207
S11302001D821E821F821886FC012081233509F07D
S11302107DC02381283709F07CC03C018C010F2E5E
S1130220FAE2EF2EF4E0FF2EF02D0F2EF0E38F2EE6
S1130230F4E09F2EF02D0AC0065F1F4FF6E0EF0E8C
S1130240F11CF5018585883709F066C0F8018481C1
S113025095819A83898386818B83CE01019671D798
S11302606C015801F8018781893709F058C08085ED
S113027091859E838D8382858F83CE01059661D778
S1130280F8012181253609F04DC0228130E0205348
S1130290310922303105A9F024F42115310541F04A
S11302A01EC02330310589F024303105A9F017C070
S11302B088EE93E00F2EF8EECF2EF3E0DF2EF02D34
S11302C00EC0D194C194D1080AC0D194C194D1086C
S11302D091958195910903C0919581959109F701B3
S11302E0D182C0829383828335832483E814F90402
S11302F009F0A2CF81E090E0F3012589253411F4BF
S113030080E090E09195819591090EC08FEF9FEF69
S11303100BC08FEF9FEF08C08FEF9FEF05C08FEFEB
S11303209FEF02C08FEF9FEF28960FB6F894DEBFC1
S11303300FBECDBFDF91CF911F910F91FF90EF9032
S1130340DF90CF90BF90AF909F908F907F906F90F1
S11303500895FC01EE0FFF1FE80FF91FEE0FFF1FBA
S1130360E65DFB4F20813181243833408CF4FC015D
S1130370EE0FFF1FE80FF91FEE0FFF1FE65DFB4FA7
S113038081E022813381243833401CF080E00895D9
S113039080E0089582309105B1F11CF4019749F091
S11303A0B0C08330910509F458C0049709F47FC0A4
S11303B0A8C0672BA1F4BA01550F880B990B63D51C
S11303C020E030E044E353E4C3D420E030E248E7E3
S11303D055E451D625D5CB018C529C4F0895BA01D2
S11303E0550F880B990B4FD520E030E044E353E4DC
S11303F0AFD420E030E44BE755E43DD611D5CB0132
S11304008C529C4F0895672BA1F4BA01550F880BA9
S1130410990B39D520E030E044E353E499D420E04B
S113042030E248E755E427D6FBD4CB018C529C4FED
S11304300895BA01550F880B990B25D520E030E0BB
S113044044E353E485D420E030E248E755E413D68E
S1130450E7D4CB018C529C4F0895672BA1F4BA01C9
S1130460550F880B990B0FD520E030E044E353E49B
S11304706FD420E030EC4EE655E4FDD5D1D4CB0169
S11304808C529C4F0895BA01550F880B990BFBD4DD
S113049020E030E044E353E45BD420E030E248E77A
S11304A055E4E9D5BDD4CB018C529C4F0895672BFC
S11304B0A1F4BA01550F880B990BE5D420E030E084
S11304C044E353E445D420E030E44BE755E4D3D58A
S11304D0A7D4CB018C529C4F0895BA01550F880BB9
S11304E0990BD1D420E030E044E353E431D420E04C
S11304F030EC4EE655E4BFD593D4CB018C529C4FDF
S113050008958FEF9FEF08958230910551F01CF408
S1130510019751F020C08330910559F0049771F090
S11305201AC026E533E117C0672B69F028E833E1E8
S113053012C0672B59F026E533E10DC0672B49F053
S113054020EC32E108C026E533E105C020EC32E1BD
S113055002C028E833E1443D83E0580734F081E0E9
S1130560241735071CF480E0089580E00895EF9285
S1130570FF920F931F93CF93DF93EC018B01CA017A
S1130580B9014ED4AB01B801CE0104DF7C018FEF79
S1130590E816F806C1F1A701B801CE01B5DF88233A
S11305A091F1C130D10551F4012B29F4F092870067
S11305B0E092860028C0F9BCE8BC25C0C230D10551
S11305C051F4012B19F4FBBCEABC1DC0F092870066
S11305D0E092860018C0C330D10551F4012B29F4F0
S11305E0F0928500E09284000EC0FBBCEABC0BC014
S11305F0249749F4012B19F4F9BCE8BC04C0F09227
S11306008500E0928400DF91CF911F910F91FF90BC
S1130610EF9008954F925F926F927F928F929F9284
S1130620AF92BF92CF92DF92EF92FF920F931F93FC
S1130630CF93DF93EC01FC01EE0FFF1FE80FF91FCE
S1130640EE0FFF1FE65DFB4FC480D58082E0C81625
S1130650D10409F465C02CF481E0C816D10461F01A
S113066069C183E0C816D10409F4ADC084E0C8169A
S1130670D10409F407C15EC1FE01EE0FFF1FEC0FA8
S1130680FD1FEE0FFF1FE65DFB4F00811181A2806D
S1130690B380B801012E000C880B990BF4D32B0105
S11306A03C01B5016A507109072E000C880B990BA7
S11306B0EAD3A3019201E6D220E030E044E353E41C
S11306C0DAD423EC35EF48E450E442D32ED3A8D354
S11306D07B01B501BB0C880B990BD5D34B015C0195
S11306E0B8016A507109072E000C880B990BCBD303
S11306F0A5019401C7D220E030E044E353E4BBD425
S113070023EC35EF48E450E423D39B01AC0160E0D3
S113071070E084E393E442D208D382D38B010AC10C
S1130720FE01EE0FFF1FEC0FFD1FEE0FFF1FE65D36
S1130730FB4F02811381A080B180B801012E000C0F
S1130740880B990BA0D32B013C01B501665F7F4F49
S1130750072E000C880B990B96D3A301920192D219
S113076020E030E044E353E486D423EC35EF48E45E
S113077050E4EED2DAD254D37B01772324F4EE246E
S1130780FF24E61AF70AB501BB0C880B990B7BD33F
S11307904B015C01B8016A507109072E000C880BEB
S11307A0990B71D3A50194016DD220E030E044E3AC
S11307B053E461D423EC35EF48E450E4C9D2B5D214
S11307C02FD38B01B7C0FE01EE0FFF1FEC0FFD1FEF
S11307D0EE0FFF1FE65DFB4F00811181A280B38005
S11307E0B801012E000C880B990B4DD32B013C0151
S11307F0B501665F7F4F072E000C880B990B43D31E
S1130800A30192013FD220E030E044E353E433D427
S113081023EC35EF48E450E49BD287D201D39B010B
S1130820772324F422273327261B370B64EB70E04D
S11308307B01E21AF30AB501BB0C880B990B23D395
S11308404B015C01B801665F7F4F072E000C880BDB
S1130850990B19D3A501940115D220E030E044E3AB
S113086053E409D423EC35EF48E450E471D25DD26B
S1130870D7D28B0177230CF05DC000271127061B0C
S1130880170B58C0FE01EE0FFF1FEC0FFD1FEE0FFC
S1130890FF1FE65DFB4F02811381A080B180B80188
S11308A0012E000C880B990BEED22B013C01B501F3
S11308B06A507109072E000C880B990BE4D2A3012E
S11308C09201E0D120E030E044E353E4D4D323ECBC
S11308D035EF48E450E43CD29B01AC0160E070E0A9
S11308E084E393E45BD121D29BD27B01B501BB0CA1
S11308F0880B990BC8D24B015C01B801665F7F4F2E
S1130900072E000C880B990BBED2A5019401BAD115
S113091020E030E044E353E4AED323EC35EF48E485
S113092050E416D220E030E044E353E438D1FDD162
S113093077D28B01B701FF0C880B990BA4D29B01D2
S1130940AC0160E070E0C60112DEB801110F880B43
S1130950990B99D29B01AC01CE01880F991FC80F46
S1130960D91FCC0FDD1FC65DDB4F61E070E08C81C9
S11309709D81FDDDDF91CF911F910F91FF90EF904D
S1130980DF90CF90BF90AF909F908F907F906F90AB
S11309905F904F90089584ED93E09BBD8ABD99BD0F
S11309A088BDA6E8B0E011969C938E93E4E8F0E04D
S11309B0918380832FEF33ED40E32150304040405A
S11309C0E1F700C000002FEF33ED40E32150304049
S11309D04040E1F700C000002FEF33ED40E3215029
S11309E030404040E1F700C0000026E533E13BBD64
S11309F02ABD48E853E159BD48BD11963C932E9356
S1130A0020EC32E1318320832FEF33ED40E321509A
S1130A1030404040E1F700C000002FEF33ED40E3E9
S1130A20215030404040E1F700C000002FEF33ED8B
S1130A3040E3215030404040E1F700C000009BBD3E
S1130A408ABD99BD88BD11969C938E9391838083B2
S1130A50089593DBA0DF53D08ED0789480919602D2
S1130A60909197020197D1F757D0B0DB019661F4CA
S1130A70809100019091010101969093010180936E
S1130A8000010A9759F711C080E090E062DC8823E6
S1130A9019F080E090E0BEDD81E090E05ADC88232C
S1130AA0E9F281E090E0B6DDD9CF80E090E00895EE
S1130AB08CB18D3011F08A3091F4E0919402F09170
S1130AC09502EC5FFE4F108281E090E09093030169
S1130AD0809302011092950210929402089520913D
S1130AE0940230919502A9014F5F5F4F5093950294
S1130AF040939402F901EC5FFE4F808308951092B5
S1130B0090008FEC89B9599AE5E9F0E0808186601C
S1130B10808388E98AB90895109297021092960208
S1130B2088E992E0089580919C008D3011F08A301C
S1130B3091F4E0912804F0912904E856FD4F1082C5
S1130B4081E090E09093970280939602109229049A
S1130B501092280408952091280430912904A901B1
S1130B604F5F5F4F5093290440932804F901E856DE
S1130B70FD4F80830895109298008FEC8093990024
S1130B80EBE9F0E0808182608083EDE9F0E0808130
S1130B908660808388E980939A0008955058BB2723
S1130BA0AA270ED010C201D230F006D220F031F4C0
S1130BB09F3F11F41EF4D1C10EF4E095E7FB9EC1F2
S1130BC0E92F12D280F3BA176207730784079507D7
S1130BD018F071F49EF541C20EF4E0950B2EBA2F75
S1130BE0A02D0B01B90190010C01CA01A00111242F
S1130BF0FF27591B99F0593F50F4503E68F11A16DB
S1130C00F040A22F232F342F4427585FF3CF46956B
S1130C1037952795A795F0405395C9F77EF41F168D
S1130C20BA0B620B730B840BBAF09150A1F0FF0F57
S1130C30BB1F661F771F881FC2F70EC0BA0F621F43
S1130C40731F841F48F4879577956795B795F79533
S1130C509E3F08F0B3CF9395880F08F09927EE0FC5
S1130C60979587950895A1D158F080E891E009F40B
S1130C709EEFA2D128F040E851E059F45EEF09C09C
S1130C806CC1EBC1E92FE078AFD168F3092E052AD6
S1130C90C1F3261737074807590738F00E2E07F80F
S1130CA0E02569F0E025E0640AC0EF6307F80094EA
S1130CB007FADB01B9019D01DC01CA01AD01EF9323
S1130CC056D081D10AD05F91552331F02BED3FE00E
S1130CD049E450FD49EC63CF0895DF93DD27B92F34
S1130CE0BF7740E85FE31616170648075B0710F462
S1130CF0D92FBAD19F938F937F936F931FD2ECE830
S1130D00F0E02ED160D12F913F914F915F91BFD1EF
S1130D10DD2349F09058A2EA2AED3FE049EC5FE375
S1130D20D0785D274DDFDF914EC180D180F09F37B1
S1130D3040F491110EF492C160E070E080E89FE30A
S1130D40089526F01B16611D711D811DDDC0F7C0BD
S1130D500CD039C131D140F028D130F021F45F3FBB
S1130D6019F0CCC051117AC1F8C03ED198F399233F
S1130D70C9F35523B1F3951B550BBB27AA2762175B
S1130D807307840738F09F5F5F4F220F331F441FA0
S1130D90AA1FA9F333D00E2E3AF0E0E830D09150D8
S1130DA05040E695001CCAF729D0FE2F27D0660FC5
S1130DB0771F881FBB1F261737074807AB07B0E804
S1130DC009F0BB0B802DBF01FF2793585F4F2AF01A
S1130DD09E3F510568F092C041C15F3FECF3983EDD
S1130DE0DCF3869577956795B795F7959F5FC9F777
S1130DF0880F911D9695879597F90895E1E0660F00
S1130E00771F881FBB1F621773078407BA0720F078
S1130E10621B730B840BBA0BEE1F88F7E0950895E1
S1130E2004D06894B1111AC10895E6D088F09F5790
S1130E3090F0B92F9927B751A0F0D1F0660F771F22
S1130E40881F991F1AF0BA95C9F712C0B13081F002
S1130E5004D1B1E0089501C1672F782F8827B85FC6
S1130E6039F0B93FCCF3869577956795B395D9F763
S1130E703EF490958095709561957F4F8F4F9F4F6D
S1130E800895E89409C097FB3EF490958095709579
S1130E9061957F4F8F4F9F4F9923A9F0F92F96E9C2
S1130EA0BB279395F695879577956795B795F11137
S1130EB0F8CFFAF4BB0F11F460FF1BC06F5F7F4FD4
S1130EC08F4F9F4F16C0882311F096E911C07723E6
S1130ED021F09EE8872F762F05C0662371F096E8EF
S1130EE0862F70E060E02AF09A95660F771F881FBE
S1130EF0DAF7880F9695879597F9089597F99F677C
S1130F0080E870E060E00895882371F4772321F08D
S1130F109850872B762F07C0662311F499270DC0AC
S1130F209051862B70E060E02AF09A95660F771F47
S1130F30881FDAF7880F9695879597F908959F3F4C
S1130F4031F0915020F4879577956795B795880F80
S1130F50911D9695879597F908959FEF80EC0895D4
S1130F60DF93CF931F930F93FF92EF92DF927B0156
S1130F708C01689405C0DA2EEF0189D0FE01E89453
S1130F80A5912591359145915591AEF3EF0118DE68
S1130F90FE019701A801DA9479F7DF90EF90FF90B2
S1130FA00F911F91CF91DF91089500240A94161692
S1130FB0170618060906089500240A941216130643
S1130FC0140605060895092E0394000C11F48823D1
S1130FD052F0BB0F40F4BF2B11F460FF04C06F5FED
S1130FE07F4F8F4F9F4F089557FD9058440F551FC3
S1130FF059F05F3F71F04795880F97FB991F61F097
S11310009F3F79F087950895121613061406551F0D
S1131010F2CF4695F1DF08C0161617061806991F79
S1131020F1CF86957105610508940895E5DFA0F078
S1131030BEE7B91788F4BB279F3860F41616B11DB4
S1131040672F782F8827985FF7CF869577956795D0
S1131050B11D93959639C8F30895E894BB27662784
S11310607727CB0197F908959B01AC0160E070E00C
S113107080E89FE36DCE0BD0A6CF97DF28F09CDFEE
S113108018F0952309F03ACF68CF1124E7CFACDFED
S1131090A0F3959FD1F3950F50E0551F629FF00187
S11310A0729FBB27F00DB11D639FAA27F00DB11DE0
S11310B0AA1F649F6627B00DA11D661F829F222769
S11310C0B00DA11D621F739FB00DA11D621F839FF0
S11310D0A00D611D221F749F3327A00D611D231FC6
S11310E0849F600D211D822F762F6A2F11249F5714
S11310F050408AF0E1F088234AF0EE0FFF1FBB1F37
S1131100661F771F881F91505040A9F79E3F5105D5
S113111070F0F4CEA3CF5F3FECF3983EDCF38695FA
S113112077956795B795F795E7959F5FC1F7FE2B80
S1131130880F911D9695879597F908959B01AC01A9
S11311409ACFFC0188279927E89421912032E9F36A
S1131150293010F02E30C8F32B3239F02D3231F40F
S1131160689403C00BD0820F911D219120532A3023
S1131170C8F31EF4909581959F4F08957AE0979F48
S1131180902D879F802D910D11240895F894FFCF01
S9030000FC
